{
  "_format": "hh-sol-artifact-1",
  "contractName": "VestingTemplate",
  "sourceName": "contracts/VestingFactory.sol",
  "abi": [
    {
      "inputs": [],
      "stateMutability": "nonpayable",
      "type": "constructor"
    },
    {
      "anonymous": false,
      "inputs": [
        {
          "indexed": true,
          "internalType": "address",
          "name": "token",
          "type": "address"
        },
        {
          "indexed": false,
          "internalType": "uint256",
          "name": "amount",
          "type": "uint256"
        }
      ],
      "name": "ERC20Released",
      "type": "event"
    },
    {
      "anonymous": false,
      "inputs": [
        {
          "indexed": false,
          "internalType": "uint256",
          "name": "amount",
          "type": "uint256"
        }
      ],
      "name": "EtherReleased",
      "type": "event"
    },
    {
      "anonymous": false,
      "inputs": [
        {
          "indexed": false,
          "internalType": "uint8",
          "name": "version",
          "type": "uint8"
        }
      ],
      "name": "Initialized",
      "type": "event"
    },
    {
      "inputs": [],
      "name": "beneficiary",
      "outputs": [
        {
          "internalType": "address",
          "name": "",
          "type": "address"
        }
      ],
      "stateMutability": "view",
      "type": "function"
    },
    {
      "inputs": [],
      "name": "cliff",
      "outputs": [
        {
          "internalType": "uint256",
          "name": "",
          "type": "uint256"
        }
      ],
      "stateMutability": "view",
      "type": "function"
    },
    {
      "inputs": [
        {
          "internalType": "contract IVotes",
          "name": "token",
          "type": "address"
        },
        {
          "internalType": "address",
          "name": "delegatee",
          "type": "address"
        }
      ],
      "name": "delegate",
      "outputs": [],
      "stateMutability": "nonpayable",
      "type": "function"
    },
    {
      "inputs": [],
      "name": "duration",
      "outputs": [
        {
          "internalType": "uint256",
          "name": "",
          "type": "uint256"
        }
      ],
      "stateMutability": "view",
      "type": "function"
    },
    {
      "inputs": [
        {
          "internalType": "uint64",
          "name": "startTimestamp",
          "type": "uint64"
        },
        {
          "internalType": "uint64",
          "name": "cliffDuration",
          "type": "uint64"
        },
        {
          "internalType": "uint64",
          "name": "vestingDuration",
          "type": "uint64"
        }
      ],
      "name": "initialize",
      "outputs": [],
      "stateMutability": "nonpayable",
      "type": "function"
    },
    {
      "inputs": [
        {
          "internalType": "bytes[]",
          "name": "data",
          "type": "bytes[]"
        }
      ],
      "name": "multicall",
      "outputs": [
        {
          "internalType": "bytes[]",
          "name": "results",
          "type": "bytes[]"
        }
      ],
      "stateMutability": "nonpayable",
      "type": "function"
    },
    {
      "inputs": [],
      "name": "owner",
      "outputs": [
        {
          "internalType": "address",
          "name": "",
          "type": "address"
        }
      ],
      "stateMutability": "view",
      "type": "function"
    },
    {
      "inputs": [],
      "name": "registry",
      "outputs": [
        {
          "internalType": "contract VestingFactory",
          "name": "",
          "type": "address"
        }
      ],
      "stateMutability": "view",
      "type": "function"
    },
    {
      "inputs": [
        {
          "internalType": "address",
          "name": "token",
          "type": "address"
        }
      ],
      "name": "release",
      "outputs": [],
      "stateMutability": "nonpayable",
      "type": "function"
    },
    {
      "inputs": [],
      "name": "release",
      "outputs": [],
      "stateMutability": "nonpayable",
      "type": "function"
    },
    {
      "inputs": [],
      "name": "releaseable",
      "outputs": [
        {
          "internalType": "uint256",
          "name": "",
          "type": "uint256"
        }
      ],
      "stateMutability": "view",
      "type": "function"
    },
    {
      "inputs": [
        {
          "internalType": "address",
          "name": "token",
          "type": "address"
        }
      ],
      "name": "releaseable",
      "outputs": [
        {
          "internalType": "uint256",
          "name": "",
          "type": "uint256"
        }
      ],
      "stateMutability": "view",
      "type": "function"
    },
    {
      "inputs": [],
      "name": "released",
      "outputs": [
        {
          "internalType": "uint256",
          "name": "",
          "type": "uint256"
        }
      ],
      "stateMutability": "view",
      "type": "function"
    },
    {
      "inputs": [
        {
          "internalType": "address",
          "name": "token",
          "type": "address"
        }
      ],
      "name": "released",
      "outputs": [
        {
          "internalType": "uint256",
          "name": "",
          "type": "uint256"
        }
      ],
      "stateMutability": "view",
      "type": "function"
    },
    {
      "inputs": [],
      "name": "start",
      "outputs": [
        {
          "internalType": "uint256",
          "name": "",
          "type": "uint256"
        }
      ],
      "stateMutability": "view",
      "type": "function"
    },
    {
      "inputs": [
        {
          "internalType": "address",
          "name": "newOwner",
          "type": "address"
        }
      ],
      "name": "transferOwnership",
      "outputs": [],
      "stateMutability": "nonpayable",
      "type": "function"
    },
    {
      "inputs": [
        {
          "internalType": "uint64",
          "name": "timestamp",
          "type": "uint64"
        }
      ],
      "name": "vestedAmount",
      "outputs": [
        {
          "internalType": "uint256",
          "name": "",
          "type": "uint256"
        }
      ],
      "stateMutability": "view",
      "type": "function"
    },
    {
      "inputs": [
        {
          "internalType": "address",
          "name": "token",
          "type": "address"
        },
        {
          "internalType": "uint64",
          "name": "timestamp",
          "type": "uint64"
        }
      ],
      "name": "vestedAmount",
      "outputs": [
        {
          "internalType": "uint256",
          "name": "",
          "type": "uint256"
        }
      ],
      "stateMutability": "view",
      "type": "function"
    },
    {
      "stateMutability": "payable",
      "type": "receive"
    }
  ],
  "bytecode": "0x60a0604052336080523480156200001557600080fd5b50600054610100900460ff1615808015620000375750600054600160ff909116105b8062000067575062000054306200014160201b620009f11760201c565b15801562000067575060005460ff166001145b620000cf5760405162461bcd60e51b815260206004820152602e60248201527f496e697469616c697a61626c653a20636f6e747261637420697320616c72656160448201526d191e481a5b9a5d1a585b1a5e995960921b606482015260840160405180910390fd5b6000805460ff191660011790558015620000f3576000805461ff0019166101001790555b80156200013a576000805461ff0019169055604051600181527f7f26b83ff96e1f2b6a682f133852f6798a09c465da95921460cefb38474024989060200160405180910390a15b5062000150565b6001600160a01b03163b151590565b6080516115c56200017a600039600081816102090152818161076f015261095201526115c56000f3fe60806040526004361061010d5760003560e01c80638ab6568611610095578063ac9650d811610064578063ac9650d8146102e0578063b01b34501461030d578063be9a655514610322578063c9ac9eb314610347578063f2fde38b1461036757600080fd5b80638ab65686146102605780638da5cb5b1461028057806396132521146102955780639852595c146102aa57600080fd5b806319165587116100dc57806319165587146101aa57806338af3eed146101ca5780637b103999146101f7578063810ec23b1461022b57806386d1a69f1461024b57600080fd5b80630a17b06b146101195780630b3980851461014c5780630fb5a6b41461016e57806313d033c01461018c57600080fd5b3661011457005b600080fd5b34801561012557600080fd5b506101396101343660046110df565b610387565b6040519081526020015b60405180910390f35b34801561015857600080fd5b5061016c6101673660046110fa565b6103ab565b005b34801561017a57600080fd5b506036546001600160401b0316610139565b34801561019857600080fd5b506067546001600160401b0316610139565b3480156101b657600080fd5b5061016c6101c5366004611152565b6104f3565b3480156101d657600080fd5b506101df6105a6565b6040516001600160a01b039091168152602001610143565b34801561020357600080fd5b506101df7f000000000000000000000000000000000000000000000000000000000000000081565b34801561023757600080fd5b5061013961024636600461116f565b6105b5565b34801561025757600080fd5b5061016c61064b565b34801561026c57600080fd5b5061016c61027b3660046111a4565b6106c9565b34801561028c57600080fd5b506101df610757565b3480156102a157600080fd5b50603354610139565b3480156102b657600080fd5b506101396102c5366004611152565b6001600160a01b031660009081526034602052604090205490565b3480156102ec57600080fd5b506103006102fb3660046111dd565b6107e2565b60405161014391906112a9565b34801561031957600080fd5b506101396108d6565b34801561032e57600080fd5b50603554600160a01b90046001600160401b0316610139565b34801561035357600080fd5b50610139610362366004611152565b6108f4565b34801561037357600080fd5b5061016c610382366004611152565b610921565b60006103a561039560335490565b61039f9047611321565b83610a00565b92915050565b600054610100900460ff16158080156103cb5750600054600160ff909116105b806103e55750303b1580156103e5575060005460ff166001145b61044d5760405162461bcd60e51b815260206004820152602e60248201527f496e697469616c697a61626c653a20636f6e747261637420697320616c72656160448201526d191e481a5b9a5d1a585b1a5e995960921b60648201526084015b60405180910390fd5b6000805460ff191660011790558015610470576000805461ff0019166101001790555b61047c60018584610a31565b6104868385611339565b6067805467ffffffffffffffff19166001600160401b039290921691909117905580156104ed576000805461ff0019169055604051600181527f7f26b83ff96e1f2b6a682f133852f6798a09c465da95921460cefb38474024989060200160405180910390a15b50505050565b6001600160a01b03811660009081526034602052604081205461051683426105b5565b6105209190611364565b6001600160a01b03831660009081526034602052604081208054929350839290919061054d908490611321565b90915550506040518181526001600160a01b038316907fc0e523490dd523c33b1878c9eb14ff46991e3f5b2cd33710918618f2a39cba1b9060200160405180910390a26105a28261059c6105a6565b83610a68565b5050565b60006105b0610757565b905090565b6001600160a01b038216600090815260346020526040812054610644906040516370a0823160e01b81523060048201526001600160a01b038616906370a0823190602401602060405180830381865afa158015610616573d6000803e3d6000fd5b505050506040513d601f19601f8201168201806040525081019061063a919061137b565b61039f9190611321565b9392505050565b600061065660335490565b61065f42610387565b6106699190611364565b9050806033600082825461067d9190611321565b90915550506040518181527fda9d4e5f101b8b9b1c5b76d0c5a9f7923571acfc02376aa076b75a8c080c956b9060200160405180910390a16106c66106c06105a6565b82610aba565b50565b336106d2610757565b6001600160a01b0316146106f85760405162461bcd60e51b815260040161044490611394565b6040516317066a5760e21b81526001600160a01b038281166004830152831690635c19a95c90602401600060405180830381600087803b15801561073b57600080fd5b505af115801561074f573d6000803e3d6000fd5b505050505050565b6040516331a9108f60e11b81523060048201526000907f00000000000000000000000000000000000000000000000000000000000000006001600160a01b031690636352211e90602401602060405180830381865afa1580156107be573d6000803e3d6000fd5b505050506040513d601f19601f820116820180604052508101906105b091906113dc565b6060816001600160401b038111156107fc576107fc6113f9565b60405190808252806020026020018201604052801561082f57816020015b606081526020019060019003908161081a5790505b50905060005b828110156108cf5761089f308585848181106108535761085361140f565b90506020028101906108659190611425565b8080601f016020809104026020016040519081016040528093929190818152602001838380828437600092019190915250610bd392505050565b8282815181106108b1576108b161140f565b602002602001018190525080806108c790611472565b915050610835565b5092915050565b60006108e160335490565b6108ea42610387565b6105b09190611364565b6001600160a01b03811660009081526034602052604081205461091783426105b5565b6103a59190611364565b3361092a610757565b6001600160a01b0316146109505760405162461bcd60e51b815260040161044490611394565b7f00000000000000000000000000000000000000000000000000000000000000006001600160a01b03166323b872dd610987610757565b60405160e083901b6001600160e01b03191681526001600160a01b0391821660048201529084166024820152306044820152606401600060405180830381600087803b1580156109d657600080fd5b505af11580156109ea573d6000803e3d6000fd5b5050505050565b6001600160a01b03163b151590565b6067546000906001600160401b0390811690831610610a2857610a238383610bf8565b610644565b50600092915050565b600054610100900460ff16610a585760405162461bcd60e51b81526004016104449061148b565b610a63838383610cb3565b505050565b604080516001600160a01b038416602482015260448082018490528251808303909101815260649091019091526020810180516001600160e01b031663a9059cbb60e01b179052610a63908490610d93565b80471015610b0a5760405162461bcd60e51b815260206004820152601d60248201527f416464726573733a20696e73756666696369656e742062616c616e63650000006044820152606401610444565b6000826001600160a01b03168260405160006040518083038185875af1925050503d8060008114610b57576040519150601f19603f3d011682016040523d82523d6000602084013e610b5c565b606091505b5050905080610a635760405162461bcd60e51b815260206004820152603a60248201527f416464726573733a20756e61626c6520746f2073656e642076616c75652c207260448201527f6563697069656e74206d617920686176652072657665727465640000000000006064820152608401610444565b6060610644838360405180606001604052806027815260200161156960279139610e65565b603554600090600160a01b90046001600160401b0316826001600160401b03161015610c26575060006103a5565b6036546001600160401b0316603554600160a01b90046001600160401b0316610c4f9190611321565b826001600160401b03161115610c665750816103a5565b6036546001600160401b0316603554600160a01b90046001600160401b0316610c98906001600160401b038516611364565b610ca290856114d6565b610cac91906114f5565b90506103a5565b600054610100900460ff16610cda5760405162461bcd60e51b81526004016104449061148b565b6001600160a01b038316610d435760405162461bcd60e51b815260206004820152602a60248201527f56657374696e6757616c6c65743a2062656e6566696369617279206973207a65604482015269726f206164647265737360b01b6064820152608401610444565b603580546001600160a01b03949094166001600160e01b031990941693909317600160a01b6001600160401b0393841602179092556036805467ffffffffffffffff191692909116919091179055565b6000610de8826040518060400160405280602081526020017f5361666545524332303a206c6f772d6c6576656c2063616c6c206661696c6564815250856001600160a01b0316610f429092919063ffffffff16565b805190915015610a635780806020019051810190610e069190611517565b610a635760405162461bcd60e51b815260206004820152602a60248201527f5361666545524332303a204552433230206f7065726174696f6e20646964206e6044820152691bdd081cdd58d8d9595960b21b6064820152608401610444565b60606001600160a01b0384163b610ecd5760405162461bcd60e51b815260206004820152602660248201527f416464726573733a2064656c65676174652063616c6c20746f206e6f6e2d636f6044820152651b9d1c9858dd60d21b6064820152608401610444565b600080856001600160a01b031685604051610ee89190611539565b600060405180830381855af49150503d8060008114610f23576040519150601f19603f3d011682016040523d82523d6000602084013e610f28565b606091505b5091509150610f38828286610f59565b9695505050505050565b6060610f518484600085610f92565b949350505050565b60608315610f68575081610644565b825115610f785782518084602001fd5b8160405162461bcd60e51b81526004016104449190611555565b606082471015610ff35760405162461bcd60e51b815260206004820152602660248201527f416464726573733a20696e73756666696369656e742062616c616e636520666f6044820152651c8818d85b1b60d21b6064820152608401610444565b6001600160a01b0385163b61104a5760405162461bcd60e51b815260206004820152601d60248201527f416464726573733a2063616c6c20746f206e6f6e2d636f6e74726163740000006044820152606401610444565b600080866001600160a01b031685876040516110669190611539565b60006040518083038185875af1925050503d80600081146110a3576040519150601f19603f3d011682016040523d82523d6000602084013e6110a8565b606091505b50915091506110b8828286610f59565b979650505050505050565b80356001600160401b03811681146110da57600080fd5b919050565b6000602082840312156110f157600080fd5b610644826110c3565b60008060006060848603121561110f57600080fd5b611118846110c3565b9250611126602085016110c3565b9150611134604085016110c3565b90509250925092565b6001600160a01b03811681146106c657600080fd5b60006020828403121561116457600080fd5b81356106448161113d565b6000806040838503121561118257600080fd5b823561118d8161113d565b915061119b602084016110c3565b90509250929050565b600080604083850312156111b757600080fd5b82356111c28161113d565b915060208301356111d28161113d565b809150509250929050565b600080602083850312156111f057600080fd5b82356001600160401b038082111561120757600080fd5b818501915085601f83011261121b57600080fd5b81358181111561122a57600080fd5b8660208260051b850101111561123f57600080fd5b60209290920196919550909350505050565b60005b8381101561126c578181015183820152602001611254565b838111156104ed5750506000910152565b60008151808452611295816020860160208601611251565b601f01601f19169290920160200192915050565b6000602080830181845280855180835260408601915060408160051b870101925083870160005b828110156112fe57603f198886030184526112ec85835161127d565b945092850192908501906001016112d0565b5092979650505050505050565b634e487b7160e01b600052601160045260246000fd5b600082198211156113345761133461130b565b500190565b60006001600160401b0380831681851680830382111561135b5761135b61130b565b01949350505050565b6000828210156113765761137661130b565b500390565b60006020828403121561138d57600080fd5b5051919050565b60208082526028908201527f52656769737472794f776e61626c653a2063616c6c6572206973206e6f74207460408201526734329037bbb732b960c11b606082015260800190565b6000602082840312156113ee57600080fd5b81516106448161113d565b634e487b7160e01b600052604160045260246000fd5b634e487b7160e01b600052603260045260246000fd5b6000808335601e1984360301811261143c57600080fd5b8301803591506001600160401b0382111561145657600080fd5b60200191503681900382131561146b57600080fd5b9250929050565b6000600182016114845761148461130b565b5060010190565b6020808252602b908201527f496e697469616c697a61626c653a20636f6e7472616374206973206e6f74206960408201526a6e697469616c697a696e6760a81b606082015260800190565b60008160001904831182151516156114f0576114f061130b565b500290565b60008261151257634e487b7160e01b600052601260045260246000fd5b500490565b60006020828403121561152957600080fd5b8151801515811461064457600080fd5b6000825161154b818460208701611251565b9190910192915050565b602081526000610644602083018461127d56fe416464726573733a206c6f772d6c6576656c2064656c65676174652063616c6c206661696c6564a26469706673582212205fa2e171e07349f3ab04fbeac967484c29da22323b0d318ff20b86f2037fba6764736f6c634300080f0033",
  "linkReferences": {},
  "deployedLinkReferences": {}
}