{
  "_format": "hh-sol-artifact-1",
  "contractName": "VestingFactory",
  "sourceName": "contracts/VestingFactory.sol",
  "abi": [
    {
      "anonymous": false,
      "inputs": [
        {
          "indexed": true,
          "internalType": "address",
          "name": "owner",
          "type": "address"
        },
        {
          "indexed": true,
          "internalType": "address",
          "name": "approved",
          "type": "address"
        },
        {
          "indexed": true,
          "internalType": "uint256",
          "name": "tokenId",
          "type": "uint256"
        }
      ],
      "name": "Approval",
      "type": "event"
    },
    {
      "anonymous": false,
      "inputs": [
        {
          "indexed": true,
          "internalType": "address",
          "name": "owner",
          "type": "address"
        },
        {
          "indexed": true,
          "internalType": "address",
          "name": "operator",
          "type": "address"
        },
        {
          "indexed": false,
          "internalType": "bool",
          "name": "approved",
          "type": "bool"
        }
      ],
      "name": "ApprovalForAll",
      "type": "event"
    },
    {
      "anonymous": false,
      "inputs": [
        {
          "indexed": true,
          "internalType": "address",
          "name": "from",
          "type": "address"
        },
        {
          "indexed": true,
          "internalType": "address",
          "name": "to",
          "type": "address"
        },
        {
          "indexed": true,
          "internalType": "uint256",
          "name": "tokenId",
          "type": "uint256"
        }
      ],
      "name": "Transfer",
      "type": "event"
    },
    {
      "inputs": [
        {
          "internalType": "address",
          "name": "to",
          "type": "address"
        },
        {
          "internalType": "uint256",
          "name": "tokenId",
          "type": "uint256"
        }
      ],
      "name": "approve",
      "outputs": [],
      "stateMutability": "nonpayable",
      "type": "function"
    },
    {
      "inputs": [
        {
          "internalType": "address",
          "name": "owner",
          "type": "address"
        }
      ],
      "name": "balanceOf",
      "outputs": [
        {
          "internalType": "uint256",
          "name": "",
          "type": "uint256"
        }
      ],
      "stateMutability": "view",
      "type": "function"
    },
    {
      "inputs": [
        {
          "internalType": "uint256",
          "name": "tokenId",
          "type": "uint256"
        }
      ],
      "name": "getApproved",
      "outputs": [
        {
          "internalType": "address",
          "name": "",
          "type": "address"
        }
      ],
      "stateMutability": "view",
      "type": "function"
    },
    {
      "inputs": [
        {
          "internalType": "address",
          "name": "owner",
          "type": "address"
        },
        {
          "internalType": "address",
          "name": "operator",
          "type": "address"
        }
      ],
      "name": "isApprovedForAll",
      "outputs": [
        {
          "internalType": "bool",
          "name": "",
          "type": "bool"
        }
      ],
      "stateMutability": "view",
      "type": "function"
    },
    {
      "inputs": [
        {
          "internalType": "bytes[]",
          "name": "data",
          "type": "bytes[]"
        }
      ],
      "name": "multicall",
      "outputs": [
        {
          "internalType": "bytes[]",
          "name": "results",
          "type": "bytes[]"
        }
      ],
      "stateMutability": "nonpayable",
      "type": "function"
    },
    {
      "inputs": [],
      "name": "name",
      "outputs": [
        {
          "internalType": "string",
          "name": "",
          "type": "string"
        }
      ],
      "stateMutability": "view",
      "type": "function"
    },
    {
      "inputs": [
        {
          "internalType": "address",
          "name": "beneficiaryAddress",
          "type": "address"
        },
        {
          "internalType": "uint64",
          "name": "startTimestamp",
          "type": "uint64"
        },
        {
          "internalType": "uint64",
          "name": "cliffDuration",
          "type": "uint64"
        },
        {
          "internalType": "uint64",
          "name": "vestingDuration",
          "type": "uint64"
        }
      ],
      "name": "newVesting",
      "outputs": [
        {
          "internalType": "address",
          "name": "",
          "type": "address"
        }
      ],
      "stateMutability": "nonpayable",
      "type": "function"
    },
    {
      "inputs": [
        {
          "internalType": "uint256",
          "name": "tokenId",
          "type": "uint256"
        }
      ],
      "name": "ownerOf",
      "outputs": [
        {
          "internalType": "address",
          "name": "",
          "type": "address"
        }
      ],
      "stateMutability": "view",
      "type": "function"
    },
    {
      "inputs": [
        {
          "internalType": "address",
          "name": "from",
          "type": "address"
        },
        {
          "internalType": "address",
          "name": "to",
          "type": "address"
        },
        {
          "internalType": "uint256",
          "name": "tokenId",
          "type": "uint256"
        }
      ],
      "name": "safeTransferFrom",
      "outputs": [],
      "stateMutability": "nonpayable",
      "type": "function"
    },
    {
      "inputs": [
        {
          "internalType": "address",
          "name": "from",
          "type": "address"
        },
        {
          "internalType": "address",
          "name": "to",
          "type": "address"
        },
        {
          "internalType": "uint256",
          "name": "tokenId",
          "type": "uint256"
        },
        {
          "internalType": "bytes",
          "name": "data",
          "type": "bytes"
        }
      ],
      "name": "safeTransferFrom",
      "outputs": [],
      "stateMutability": "nonpayable",
      "type": "function"
    },
    {
      "inputs": [
        {
          "internalType": "address",
          "name": "operator",
          "type": "address"
        },
        {
          "internalType": "bool",
          "name": "approved",
          "type": "bool"
        }
      ],
      "name": "setApprovalForAll",
      "outputs": [],
      "stateMutability": "nonpayable",
      "type": "function"
    },
    {
      "inputs": [
        {
          "internalType": "bytes4",
          "name": "interfaceId",
          "type": "bytes4"
        }
      ],
      "name": "supportsInterface",
      "outputs": [
        {
          "internalType": "bool",
          "name": "",
          "type": "bool"
        }
      ],
      "stateMutability": "view",
      "type": "function"
    },
    {
      "inputs": [],
      "name": "symbol",
      "outputs": [
        {
          "internalType": "string",
          "name": "",
          "type": "string"
        }
      ],
      "stateMutability": "view",
      "type": "function"
    },
    {
      "inputs": [],
      "name": "template",
      "outputs": [
        {
          "internalType": "address",
          "name": "",
          "type": "address"
        }
      ],
      "stateMutability": "view",
      "type": "function"
    },
    {
      "inputs": [
        {
          "internalType": "uint256",
          "name": "tokenId",
          "type": "uint256"
        }
      ],
      "name": "tokenURI",
      "outputs": [
        {
          "internalType": "string",
          "name": "",
          "type": "string"
        }
      ],
      "stateMutability": "view",
      "type": "function"
    },
    {
      "inputs": [
        {
          "internalType": "address",
          "name": "from",
          "type": "address"
        },
        {
          "internalType": "address",
          "name": "to",
          "type": "address"
        },
        {
          "internalType": "uint256",
          "name": "tokenId",
          "type": "uint256"
        }
      ],
      "name": "transferFrom",
      "outputs": [],
      "stateMutability": "nonpayable",
      "type": "function"
    }
  ],
  "bytecode": "0x60a06040526040516200001290620000a2565b604051809103906000f0801580156200002f573d6000803e3d6000fd5b506001600160a01b03166080523480156200004957600080fd5b5060408051808201825260088082526756657374696e677360c01b60208084018290528451808601909552918452908301529060006200008a838262000155565b50600162000099828262000155565b50505062000221565b61173f8062001ab483390190565b634e487b7160e01b600052604160045260246000fd5b600181811c90821680620000db57607f821691505b602082108103620000fc57634e487b7160e01b600052602260045260246000fd5b50919050565b601f8211156200015057600081815260208120601f850160051c810160208610156200012b5750805b601f850160051c820191505b818110156200014c5782815560010162000137565b5050505b505050565b81516001600160401b03811115620001715762000171620000b0565b6200018981620001828454620000c6565b8462000102565b602080601f831160018114620001c15760008415620001a85750858301515b600019600386901b1c1916600185901b1785556200014c565b600085815260208120601f198616915b82811015620001f257888601518255948401946001909101908401620001d1565b5085821015620002115787850151600019600388901b60f8161c191681555b5050505050600190811b01905550565b60805161187062000244600039600081816101c001526107d101526118706000f3fe608060405234801561001057600080fd5b50600436106101005760003560e01c806370a0823111610097578063b88d4fde11610066578063b88d4fde1461023e578063c87b56dd14610251578063d1d62d9414610264578063e985e9c51461027757600080fd5b806370a08231146101e257806395d89b4114610203578063a22cb4651461020b578063ac9650d81461021e57600080fd5b806323b872dd116100d357806323b872dd1461018257806342842e0e146101955780636352211e146101a85780636f2ddd93146101bb57600080fd5b806301ffc9a71461010557806306fdde031461012d578063081812fc14610142578063095ea7b31461016d575b600080fd5b6101186101133660046111c1565b6102b3565b60405190151581526020015b60405180910390f35b610135610305565b6040516101249190611236565b610155610150366004611249565b610397565b6040516001600160a01b039091168152602001610124565b61018061017b366004611279565b6103be565b005b6101806101903660046112a3565b6104d8565b6101806101a33660046112a3565b610509565b6101556101b6366004611249565b610524565b6101557f000000000000000000000000000000000000000000000000000000000000000081565b6101f56101f03660046112df565b610584565b604051908152602001610124565b61013561060a565b6101806102193660046112fa565b610619565b61023161022c366004611336565b610628565b60405161012491906113ab565b61018061024c366004611423565b61071d565b61013561025f366004611249565b610755565b610155610272366004611517565b6107c9565b61011861028536600461156b565b6001600160a01b03918216600090815260056020908152604080832093909416825291909152205460ff1690565b60006001600160e01b031982166380ac58cd60e01b14806102e457506001600160e01b03198216635b5e139f60e01b145b806102ff57506301ffc9a760e01b6001600160e01b03198316145b92915050565b6060600080546103149061159e565b80601f01602080910402602001604051908101604052809291908181526020018280546103409061159e565b801561038d5780601f106103625761010080835404028352916020019161038d565b820191906000526020600020905b81548152906001019060200180831161037057829003601f168201915b5050505050905090565b60006103a282610889565b506000908152600460205260409020546001600160a01b031690565b60006103c982610524565b9050806001600160a01b0316836001600160a01b03160361043b5760405162461bcd60e51b815260206004820152602160248201527f4552433732313a20617070726f76616c20746f2063757272656e74206f776e656044820152603960f91b60648201526084015b60405180910390fd5b336001600160a01b038216148061045757506104578133610285565b6104c95760405162461bcd60e51b815260206004820152603e60248201527f4552433732313a20617070726f76652063616c6c6572206973206e6f7420746f60448201527f6b656e206f776e6572206e6f7220617070726f76656420666f7220616c6c00006064820152608401610432565b6104d383836108eb565b505050565b6104e23382610959565b6104fe5760405162461bcd60e51b8152600401610432906115d8565b6104d3838383610977565b6104d38383836040518060200160405280600081525061071d565b6000818152600260205260408120546001600160a01b0316806102ff5760405162461bcd60e51b8152602060048201526018602482015277115490cdcc8c4e881a5b9d985b1a59081d1bdad95b88125160421b6044820152606401610432565b60006001600160a01b0382166105ee5760405162461bcd60e51b815260206004820152602960248201527f4552433732313a2061646472657373207a65726f206973206e6f7420612076616044820152683634b21037bbb732b960b91b6064820152608401610432565b506001600160a01b031660009081526003602052604090205490565b6060600180546103149061159e565b610624338383610b13565b5050565b60608167ffffffffffffffff8111156106435761064361140d565b60405190808252806020026020018201604052801561067657816020015b60608152602001906001900390816106615790505b50905060005b82811015610716576106e63085858481811061069a5761069a611626565b90506020028101906106ac919061163c565b8080601f016020809104026020016040519081016040528093929190818152602001838380828437600092019190915250610be192505050565b8282815181106106f8576106f8611626565b6020026020010181905250808061070e906116a0565b91505061067c565b5092915050565b6107273383610959565b6107435760405162461bcd60e51b8152600401610432906115d8565b61074f84848484610c06565b50505050565b606061076082610889565b600061077760408051602081019091526000815290565b9050600081511161079757604051806020016040528060008152506107c2565b806107a184610c39565b6040516020016107b29291906116b9565b6040516020818303038152906040525b9392505050565b6000806107f57f0000000000000000000000000000000000000000000000000000000000000000610d3a565b604051630b39808560e01b815267ffffffffffffffff80881660048301528087166024830152851660448201529091506001600160a01b03821690630b39808590606401600060405180830381600087803b15801561085357600080fd5b505af1158015610867573d6000803e3d6000fd5b5050505061087e86826001600160a01b0316610dd7565b90505b949350505050565b6000818152600260205260409020546001600160a01b03166108e85760405162461bcd60e51b8152602060048201526018602482015277115490cdcc8c4e881a5b9d985b1a59081d1bdad95b88125160421b6044820152606401610432565b50565b600081815260046020526040902080546001600160a01b0319166001600160a01b038416908117909155819061092082610524565b6001600160a01b03167f8c5be1e5ebec7d5bd14f71427d1e84f3dd0314c0f7b2291e5b200ac8c7c3b92560405160405180910390a45050565b600081836001600160a01b031614806107c257506107c28383610f19565b826001600160a01b031661098a82610524565b6001600160a01b0316146109ee5760405162461bcd60e51b815260206004820152602560248201527f4552433732313a207472616e736665722066726f6d20696e636f72726563742060448201526437bbb732b960d91b6064820152608401610432565b6001600160a01b038216610a505760405162461bcd60e51b8152602060048201526024808201527f4552433732313a207472616e7366657220746f20746865207a65726f206164646044820152637265737360e01b6064820152608401610432565b610a5b6000826108eb565b6001600160a01b0383166000908152600360205260408120805460019290610a849084906116e8565b90915550506001600160a01b0382166000908152600360205260408120805460019290610ab29084906116ff565b909155505060008181526002602052604080822080546001600160a01b0319166001600160a01b0386811691821790925591518493918716917fddf252ad1be2c89b69c2b068fc378daa952ba7f163c4a11628f55a4df523b3ef91a4505050565b816001600160a01b0316836001600160a01b031603610b745760405162461bcd60e51b815260206004820152601960248201527f4552433732313a20617070726f766520746f2063616c6c6572000000000000006044820152606401610432565b6001600160a01b03838116600081815260056020908152604080832094871680845294825291829020805460ff191686151590811790915591519182527f17307eab39ab6107e8899845ad3d59bd9653f200f220920489ca2b5937696c31910160405180910390a3505050565b60606107c2838360405180606001604052806027815260200161181460279139610f97565b610c11848484610977565b610c1d84848484611074565b61074f5760405162461bcd60e51b815260040161043290611717565b606081600003610c605750506040805180820190915260018152600360fc1b602082015290565b8160005b8115610c8a5780610c74816116a0565b9150610c839050600a8361177f565b9150610c64565b60008167ffffffffffffffff811115610ca557610ca561140d565b6040519080825280601f01601f191660200182016040528015610ccf576020820181803683370190505b5090505b841561088157610ce46001836116e8565b9150610cf1600a86611793565b610cfc9060306116ff565b60f81b818381518110610d1157610d11611626565b60200101906001600160f81b031916908160001a905350610d33600a8661177f565b9450610cd3565b6000604051733d602d80600a3d3981f3363d3d373d3d3d363d7360601b81528260601b60148201526e5af43d82803e903d91602b57fd5bf360881b60288201526037816000f09150506001600160a01b038116610dd25760405162461bcd60e51b8152602060048201526016602482015275115490cc4c4d8dce8818dc99585d194819985a5b195960521b6044820152606401610432565b919050565b6001600160a01b038216610e2d5760405162461bcd60e51b815260206004820181905260248201527f4552433732313a206d696e7420746f20746865207a65726f20616464726573736044820152606401610432565b6000818152600260205260409020546001600160a01b031615610e925760405162461bcd60e51b815260206004820152601c60248201527f4552433732313a20746f6b656e20616c7265616479206d696e746564000000006044820152606401610432565b6001600160a01b0382166000908152600360205260408120805460019290610ebb9084906116ff565b909155505060008181526002602052604080822080546001600160a01b0319166001600160a01b03861690811790915590518392907fddf252ad1be2c89b69c2b068fc378daa952ba7f163c4a11628f55a4df523b3ef908290a45050565b600080610f2583610524565b9050806001600160a01b0316846001600160a01b03161480610f6c57506001600160a01b0380821660009081526005602090815260408083209388168352929052205460ff165b806108815750836001600160a01b0316610f8584610397565b6001600160a01b031614949350505050565b60606001600160a01b0384163b610fff5760405162461bcd60e51b815260206004820152602660248201527f416464726573733a2064656c65676174652063616c6c20746f206e6f6e2d636f6044820152651b9d1c9858dd60d21b6064820152608401610432565b600080856001600160a01b03168560405161101a91906117a7565b600060405180830381855af49150503d8060008114611055576040519150601f19603f3d011682016040523d82523d6000602084013e61105a565b606091505b509150915061106a828286611172565b9695505050505050565b60006001600160a01b0384163b1561116a57604051630a85bd0160e11b81526001600160a01b0385169063150b7a02906110b89033908990889088906004016117c3565b6020604051808303816000875af19250505080156110f3575060408051601f3d908101601f191682019092526110f0918101906117f6565b60015b611150573d808015611121576040519150601f19603f3d011682016040523d82523d6000602084013e611126565b606091505b5080516000036111485760405162461bcd60e51b815260040161043290611717565b805181602001fd5b6001600160e01b031916630a85bd0160e11b149050610881565b506001610881565b606083156111815750816107c2565b8251156111915782518084602001fd5b8160405162461bcd60e51b81526004016104329190611236565b6001600160e01b0319811681146108e857600080fd5b6000602082840312156111d357600080fd5b81356107c2816111ab565b60005b838110156111f95781810151838201526020016111e1565b8381111561074f5750506000910152565b600081518084526112228160208601602086016111de565b601f01601f19169290920160200192915050565b6020815260006107c2602083018461120a565b60006020828403121561125b57600080fd5b5035919050565b80356001600160a01b0381168114610dd257600080fd5b6000806040838503121561128c57600080fd5b61129583611262565b946020939093013593505050565b6000806000606084860312156112b857600080fd5b6112c184611262565b92506112cf60208501611262565b9150604084013590509250925092565b6000602082840312156112f157600080fd5b6107c282611262565b6000806040838503121561130d57600080fd5b61131683611262565b91506020830135801515811461132b57600080fd5b809150509250929050565b6000806020838503121561134957600080fd5b823567ffffffffffffffff8082111561136157600080fd5b818501915085601f83011261137557600080fd5b81358181111561138457600080fd5b8660208260051b850101111561139957600080fd5b60209290920196919550909350505050565b6000602080830181845280855180835260408601915060408160051b870101925083870160005b8281101561140057603f198886030184526113ee85835161120a565b945092850192908501906001016113d2565b5092979650505050505050565b634e487b7160e01b600052604160045260246000fd5b6000806000806080858703121561143957600080fd5b61144285611262565b935061145060208601611262565b925060408501359150606085013567ffffffffffffffff8082111561147457600080fd5b818701915087601f83011261148857600080fd5b81358181111561149a5761149a61140d565b604051601f8201601f19908116603f011681019083821181831017156114c2576114c261140d565b816040528281528a60208487010111156114db57600080fd5b82602086016020830137600060208483010152809550505050505092959194509250565b803567ffffffffffffffff81168114610dd257600080fd5b6000806000806080858703121561152d57600080fd5b61153685611262565b9350611544602086016114ff565b9250611552604086016114ff565b9150611560606086016114ff565b905092959194509250565b6000806040838503121561157e57600080fd5b61158783611262565b915061159560208401611262565b90509250929050565b600181811c908216806115b257607f821691505b6020821081036115d257634e487b7160e01b600052602260045260246000fd5b50919050565b6020808252602e908201527f4552433732313a2063616c6c6572206973206e6f7420746f6b656e206f776e6560408201526d1c881b9bdc88185c1c1c9bdd995960921b606082015260800190565b634e487b7160e01b600052603260045260246000fd5b6000808335601e1984360301811261165357600080fd5b83018035915067ffffffffffffffff82111561166e57600080fd5b60200191503681900382131561168357600080fd5b9250929050565b634e487b7160e01b600052601160045260246000fd5b6000600182016116b2576116b261168a565b5060010190565b600083516116cb8184602088016111de565b8351908301906116df8183602088016111de565b01949350505050565b6000828210156116fa576116fa61168a565b500390565b600082198211156117125761171261168a565b500190565b60208082526032908201527f4552433732313a207472616e7366657220746f206e6f6e20455243373231526560408201527131b2b4bb32b91034b6b83632b6b2b73a32b960711b606082015260800190565b634e487b7160e01b600052601260045260246000fd5b60008261178e5761178e611769565b500490565b6000826117a2576117a2611769565b500690565b600082516117b98184602087016111de565b9190910192915050565b6001600160a01b038581168252841660208201526040810183905260806060820181905260009061106a9083018461120a565b60006020828403121561180857600080fd5b81516107c2816111ab56fe416464726573733a206c6f772d6c6576656c2064656c65676174652063616c6c206661696c6564a2646970667358221220134d2d980f1b85dd0c354760fd6ff980f2e5113708bebc87afb21da962ba1ee564736f6c634300080f003360a0604052336080523480156200001557600080fd5b50600054610100900460ff1615808015620000375750600054600160ff909116105b8062000067575062000054306200014160201b620009f11760201c565b15801562000067575060005460ff166001145b620000cf5760405162461bcd60e51b815260206004820152602e60248201527f496e697469616c697a61626c653a20636f6e747261637420697320616c72656160448201526d191e481a5b9a5d1a585b1a5e995960921b606482015260840160405180910390fd5b6000805460ff191660011790558015620000f3576000805461ff0019166101001790555b80156200013a576000805461ff0019169055604051600181527f7f26b83ff96e1f2b6a682f133852f6798a09c465da95921460cefb38474024989060200160405180910390a15b5062000150565b6001600160a01b03163b151590565b6080516115c56200017a600039600081816102090152818161076f015261095201526115c56000f3fe60806040526004361061010d5760003560e01c80638ab6568611610095578063ac9650d811610064578063ac9650d8146102e0578063b01b34501461030d578063be9a655514610322578063c9ac9eb314610347578063f2fde38b1461036757600080fd5b80638ab65686146102605780638da5cb5b1461028057806396132521146102955780639852595c146102aa57600080fd5b806319165587116100dc57806319165587146101aa57806338af3eed146101ca5780637b103999146101f7578063810ec23b1461022b57806386d1a69f1461024b57600080fd5b80630a17b06b146101195780630b3980851461014c5780630fb5a6b41461016e57806313d033c01461018c57600080fd5b3661011457005b600080fd5b34801561012557600080fd5b506101396101343660046110df565b610387565b6040519081526020015b60405180910390f35b34801561015857600080fd5b5061016c6101673660046110fa565b6103ab565b005b34801561017a57600080fd5b506036546001600160401b0316610139565b34801561019857600080fd5b506067546001600160401b0316610139565b3480156101b657600080fd5b5061016c6101c5366004611152565b6104f3565b3480156101d657600080fd5b506101df6105a6565b6040516001600160a01b039091168152602001610143565b34801561020357600080fd5b506101df7f000000000000000000000000000000000000000000000000000000000000000081565b34801561023757600080fd5b5061013961024636600461116f565b6105b5565b34801561025757600080fd5b5061016c61064b565b34801561026c57600080fd5b5061016c61027b3660046111a4565b6106c9565b34801561028c57600080fd5b506101df610757565b3480156102a157600080fd5b50603354610139565b3480156102b657600080fd5b506101396102c5366004611152565b6001600160a01b031660009081526034602052604090205490565b3480156102ec57600080fd5b506103006102fb3660046111dd565b6107e2565b60405161014391906112a9565b34801561031957600080fd5b506101396108d6565b34801561032e57600080fd5b50603554600160a01b90046001600160401b0316610139565b34801561035357600080fd5b50610139610362366004611152565b6108f4565b34801561037357600080fd5b5061016c610382366004611152565b610921565b60006103a561039560335490565b61039f9047611321565b83610a00565b92915050565b600054610100900460ff16158080156103cb5750600054600160ff909116105b806103e55750303b1580156103e5575060005460ff166001145b61044d5760405162461bcd60e51b815260206004820152602e60248201527f496e697469616c697a61626c653a20636f6e747261637420697320616c72656160448201526d191e481a5b9a5d1a585b1a5e995960921b60648201526084015b60405180910390fd5b6000805460ff191660011790558015610470576000805461ff0019166101001790555b61047c60018584610a31565b6104868385611339565b6067805467ffffffffffffffff19166001600160401b039290921691909117905580156104ed576000805461ff0019169055604051600181527f7f26b83ff96e1f2b6a682f133852f6798a09c465da95921460cefb38474024989060200160405180910390a15b50505050565b6001600160a01b03811660009081526034602052604081205461051683426105b5565b6105209190611364565b6001600160a01b03831660009081526034602052604081208054929350839290919061054d908490611321565b90915550506040518181526001600160a01b038316907fc0e523490dd523c33b1878c9eb14ff46991e3f5b2cd33710918618f2a39cba1b9060200160405180910390a26105a28261059c6105a6565b83610a68565b5050565b60006105b0610757565b905090565b6001600160a01b038216600090815260346020526040812054610644906040516370a0823160e01b81523060048201526001600160a01b038616906370a0823190602401602060405180830381865afa158015610616573d6000803e3d6000fd5b505050506040513d601f19601f8201168201806040525081019061063a919061137b565b61039f9190611321565b9392505050565b600061065660335490565b61065f42610387565b6106699190611364565b9050806033600082825461067d9190611321565b90915550506040518181527fda9d4e5f101b8b9b1c5b76d0c5a9f7923571acfc02376aa076b75a8c080c956b9060200160405180910390a16106c66106c06105a6565b82610aba565b50565b336106d2610757565b6001600160a01b0316146106f85760405162461bcd60e51b815260040161044490611394565b6040516317066a5760e21b81526001600160a01b038281166004830152831690635c19a95c90602401600060405180830381600087803b15801561073b57600080fd5b505af115801561074f573d6000803e3d6000fd5b505050505050565b6040516331a9108f60e11b81523060048201526000907f00000000000000000000000000000000000000000000000000000000000000006001600160a01b031690636352211e90602401602060405180830381865afa1580156107be573d6000803e3d6000fd5b505050506040513d601f19601f820116820180604052508101906105b091906113dc565b6060816001600160401b038111156107fc576107fc6113f9565b60405190808252806020026020018201604052801561082f57816020015b606081526020019060019003908161081a5790505b50905060005b828110156108cf5761089f308585848181106108535761085361140f565b90506020028101906108659190611425565b8080601f016020809104026020016040519081016040528093929190818152602001838380828437600092019190915250610bd392505050565b8282815181106108b1576108b161140f565b602002602001018190525080806108c790611472565b915050610835565b5092915050565b60006108e160335490565b6108ea42610387565b6105b09190611364565b6001600160a01b03811660009081526034602052604081205461091783426105b5565b6103a59190611364565b3361092a610757565b6001600160a01b0316146109505760405162461bcd60e51b815260040161044490611394565b7f00000000000000000000000000000000000000000000000000000000000000006001600160a01b03166323b872dd610987610757565b60405160e083901b6001600160e01b03191681526001600160a01b0391821660048201529084166024820152306044820152606401600060405180830381600087803b1580156109d657600080fd5b505af11580156109ea573d6000803e3d6000fd5b5050505050565b6001600160a01b03163b151590565b6067546000906001600160401b0390811690831610610a2857610a238383610bf8565b610644565b50600092915050565b600054610100900460ff16610a585760405162461bcd60e51b81526004016104449061148b565b610a63838383610cb3565b505050565b604080516001600160a01b038416602482015260448082018490528251808303909101815260649091019091526020810180516001600160e01b031663a9059cbb60e01b179052610a63908490610d93565b80471015610b0a5760405162461bcd60e51b815260206004820152601d60248201527f416464726573733a20696e73756666696369656e742062616c616e63650000006044820152606401610444565b6000826001600160a01b03168260405160006040518083038185875af1925050503d8060008114610b57576040519150601f19603f3d011682016040523d82523d6000602084013e610b5c565b606091505b5050905080610a635760405162461bcd60e51b815260206004820152603a60248201527f416464726573733a20756e61626c6520746f2073656e642076616c75652c207260448201527f6563697069656e74206d617920686176652072657665727465640000000000006064820152608401610444565b6060610644838360405180606001604052806027815260200161156960279139610e65565b603554600090600160a01b90046001600160401b0316826001600160401b03161015610c26575060006103a5565b6036546001600160401b0316603554600160a01b90046001600160401b0316610c4f9190611321565b826001600160401b03161115610c665750816103a5565b6036546001600160401b0316603554600160a01b90046001600160401b0316610c98906001600160401b038516611364565b610ca290856114d6565b610cac91906114f5565b90506103a5565b600054610100900460ff16610cda5760405162461bcd60e51b81526004016104449061148b565b6001600160a01b038316610d435760405162461bcd60e51b815260206004820152602a60248201527f56657374696e6757616c6c65743a2062656e6566696369617279206973207a65604482015269726f206164647265737360b01b6064820152608401610444565b603580546001600160a01b03949094166001600160e01b031990941693909317600160a01b6001600160401b0393841602179092556036805467ffffffffffffffff191692909116919091179055565b6000610de8826040518060400160405280602081526020017f5361666545524332303a206c6f772d6c6576656c2063616c6c206661696c6564815250856001600160a01b0316610f429092919063ffffffff16565b805190915015610a635780806020019051810190610e069190611517565b610a635760405162461bcd60e51b815260206004820152602a60248201527f5361666545524332303a204552433230206f7065726174696f6e20646964206e6044820152691bdd081cdd58d8d9595960b21b6064820152608401610444565b60606001600160a01b0384163b610ecd5760405162461bcd60e51b815260206004820152602660248201527f416464726573733a2064656c65676174652063616c6c20746f206e6f6e2d636f6044820152651b9d1c9858dd60d21b6064820152608401610444565b600080856001600160a01b031685604051610ee89190611539565b600060405180830381855af49150503d8060008114610f23576040519150601f19603f3d011682016040523d82523d6000602084013e610f28565b606091505b5091509150610f38828286610f59565b9695505050505050565b6060610f518484600085610f92565b949350505050565b60608315610f68575081610644565b825115610f785782518084602001fd5b8160405162461bcd60e51b81526004016104449190611555565b606082471015610ff35760405162461bcd60e51b815260206004820152602660248201527f416464726573733a20696e73756666696369656e742062616c616e636520666f6044820152651c8818d85b1b60d21b6064820152608401610444565b6001600160a01b0385163b61104a5760405162461bcd60e51b815260206004820152601d60248201527f416464726573733a2063616c6c20746f206e6f6e2d636f6e74726163740000006044820152606401610444565b600080866001600160a01b031685876040516110669190611539565b60006040518083038185875af1925050503d80600081146110a3576040519150601f19603f3d011682016040523d82523d6000602084013e6110a8565b606091505b50915091506110b8828286610f59565b979650505050505050565b80356001600160401b03811681146110da57600080fd5b919050565b6000602082840312156110f157600080fd5b610644826110c3565b60008060006060848603121561110f57600080fd5b611118846110c3565b9250611126602085016110c3565b9150611134604085016110c3565b90509250925092565b6001600160a01b03811681146106c657600080fd5b60006020828403121561116457600080fd5b81356106448161113d565b6000806040838503121561118257600080fd5b823561118d8161113d565b915061119b602084016110c3565b90509250929050565b600080604083850312156111b757600080fd5b82356111c28161113d565b915060208301356111d28161113d565b809150509250929050565b600080602083850312156111f057600080fd5b82356001600160401b038082111561120757600080fd5b818501915085601f83011261121b57600080fd5b81358181111561122a57600080fd5b8660208260051b850101111561123f57600080fd5b60209290920196919550909350505050565b60005b8381101561126c578181015183820152602001611254565b838111156104ed5750506000910152565b60008151808452611295816020860160208601611251565b601f01601f19169290920160200192915050565b6000602080830181845280855180835260408601915060408160051b870101925083870160005b828110156112fe57603f198886030184526112ec85835161127d565b945092850192908501906001016112d0565b5092979650505050505050565b634e487b7160e01b600052601160045260246000fd5b600082198211156113345761133461130b565b500190565b60006001600160401b0380831681851680830382111561135b5761135b61130b565b01949350505050565b6000828210156113765761137661130b565b500390565b60006020828403121561138d57600080fd5b5051919050565b60208082526028908201527f52656769737472794f776e61626c653a2063616c6c6572206973206e6f74207460408201526734329037bbb732b960c11b606082015260800190565b6000602082840312156113ee57600080fd5b81516106448161113d565b634e487b7160e01b600052604160045260246000fd5b634e487b7160e01b600052603260045260246000fd5b6000808335601e1984360301811261143c57600080fd5b8301803591506001600160401b0382111561145657600080fd5b60200191503681900382131561146b57600080fd5b9250929050565b6000600182016114845761148461130b565b5060010190565b6020808252602b908201527f496e697469616c697a61626c653a20636f6e7472616374206973206e6f74206960408201526a6e697469616c697a696e6760a81b606082015260800190565b60008160001904831182151516156114f0576114f061130b565b500290565b60008261151257634e487b7160e01b600052601260045260246000fd5b500490565b60006020828403121561152957600080fd5b8151801515811461064457600080fd5b6000825161154b818460208701611251565b9190910192915050565b602081526000610644602083018461127d56fe416464726573733a206c6f772d6c6576656c2064656c65676174652063616c6c206661696c6564a26469706673582212205fa2e171e07349f3ab04fbeac967484c29da22323b0d318ff20b86f2037fba6764736f6c634300080f0033",
  "linkReferences": {},
  "deployedLinkReferences": {}
}